:1000000049C0000065C0000063C0000061C000007E
:100010005FC000005DC000005BC0000059C0000070
:1000200057C0000055C0000053C0000051C0000080
:10003000B2C700004DC000004BC0000049C0000026
:1000400047C0000045C00000B6C0000041C000002D
:100050003FC000000C946F093BC000000C942D09B8
:1000600037C0000035C0000033C0000031C00000C0
:100070002FC000002DC000002BC0000029C00000D0
:100080000C94FD0925C000000C94BB0921C00000A0
:100090001FC0000011241FBECFEFD0E1DEBFCDBFD7
:1000A00011E0A0E0B1E0EEE5FBE100E00BBF02C033
:1000B00007900D92A037B107D9F722E0A0E7B1E091
:1000C00001C01D92A53BB207E1F703D00C94AD0D22
:1000D00097CFCF93DF93CDB7DEB7ACD7A1D6FECF06
:1000E0000F931F93CF93DF9300D0CDB7DEB79A83E2
:1000F00089838DE290E02DE230E0F90120812863D0
:10010000FC01208384E990E0FC011182108288E9DF
:1001100090E0FC01118210828AE990E0FC011182DA
:1001200010828CE990E0FC011182108280E990E05D
:100130002EEBFC01208381E990E02AE1FC01208381
:1001400006E910E089819A81CC01A0E0B0E0BC0111
:10015000CD010E94460BDC01CB0120E030E040E005
:1001600051E4BC01CD010E94FC0BDC01CB019C01E0
:10017000AD0160E876E988E19BE40E94B20ADC0107
:10018000CB0120E030E040E05FE3BC01CD010E9404
:100190004A0ADC01CB01BC01CD010E941A0BDC0133
:1001A000CB01F801918380830F900F90DF91CF9165
:1001B0001F910F9108951F920F9200905F000F9270
:1001C000112400905B000F922F933F934F935F9306
:1001D0008F939F93EF93FF93CF93DF9300D000D043
:1001E000CDB7DEB78DEE90E0FC0180818B83198264
:1001F000A4C08DEE90E029812295207FFC01208310
:100200008EEE90E0FC018081829586958770882F24
:1002100090E081709927892B09F470C08FEE90E0EF
:1002200020E8FC0120838EEE90E02EEE30E0F90114
:1002300020812F7DFC01208382EF90E0FC018081F2
:10024000829586958770282F83EF90E0FC0180814E
:10025000882F90E0880F991F880F991F880F991F8A
:10026000822B8C831A8226C08C81882F90E081504B
:100270009048880F991F80599E4FFC012081318141
:100280008C81882F90E001978C579E4FFC018081D4
:10029000482F50E08A81882F90E0840F951F820FAD
:1002A000931F2AEF30E0F9012081FC0120838A812D
:1002B0008F5F8A838A818830B8F28C81882F90E0A2
:1002C00001978C579E4FFC0120812F5FFC012083FA
:1002D000253041F48C81882F90E001978C579E4FF8
:1002E000FC0110828C81882F90E0019788569E4FE8
:1002F000FC0120812F5FFC01208323C08EEE90E063
:10030000FC0180818295869586958370882F90E088
:1003100081709927892B71F08FEE90E0FC0110829B
:100320008EEE90E02EEE30E0F90120812F7BFC0173
:10033000208307C089818F5F898389818F3008F48A
:1003400058CF8DEE90E02B81FC0120838AED90E068
:100350002AED30E0F9012081FC0120830F900F90FD
:100360000F900F90DF91CF91FF91EF919F918F911F
:100370005F914F913F912F910F9000925B000F90F2
:1003800000925F000F901F901895CF93DF9300D0DD
:10039000CDB7DEB788ED90E021E0FC012083198223
:1003A0003EC08DEE90E029812295207FFC012083C4
:1003B0008EEE90E0FC0110828FEE90E0FC01108246
:1003C00083EF90E0FC01108282EF90E0FC0110824C
:1003D00081EF90E0FC01108280EF90E0FC01108240
:1003E00087EF90E0FC01108286EF90E0FC01108224
:1003F00085EF90E0FC01108284EF90E0FC01108218
:100400001A8207C08AEF90E0FC0110828A818F5F18
:100410008A838A818830B0F389818F5F898389815B
:100420008F3008F4BECF88ED90E022E0FC012083FD
:1004300082EE90E021E0FC01208383EE90E028E052
:10044000FC01208384EE90E02EE5FC01208385EE04
:1004500090E0FC0110828BED90E020EBFC0120830A
:100460008FED90E02FE7FC0120838EED90E02FEFE1
:10047000FC01208378940F900F90DF91CF91089525
:10048000CF93DF9300D000D0CDB7DEB79C838B83B2
:100490008DEE90E0FC0180818A83000089ED90E080
:1004A000FC01808182958F70882F90E08170992760
:1004B000892BA1F789ED90E0FC01808186958695D6
:1004C0008695882F90E081709927892B39F71982BA
:1004D00049C08DEE90E029812295207FFC01208388
:1004E0008FEE90E0FC0180818295869586958370E1
:1004F000882321F089818F5F898334C08FEE90E05B
:100500002FE0FC01208383EF90E02B813C81332797
:10051000369527953695279536952795FC012083A6
:1005200082EF90E02B812295220F207EFC01208318
:1005300086EF90E020EEFC01208387EF90E02FEF24
:10054000FC0120838FEE90E02FEE30E0F901208156
:100550002068FC0120838DEE90E02A81FC0120833D
:1005600081E00AC089818F3008F4B3CF8DEE90E02E
:100570002A81FC01208380E00F900F900F900F9054
:10058000DF91CF9108950F931F93CF93DF9300D006
:10059000CDB7DEB78A83F9DE19822FC08981882F13
:1005A00090E001966DDF8981882F90E0880F991F78
:1005B0008C0100591E4F61E070E085E090E00E94E0
:1005C0005F0CF801918380838981882F90E02981D5
:1005D000222F30E04981442F50E060E048565E4FC2
:1005E000FA01608322573E4FF90160838C579E4F7A
:1005F000FC01608389818F5F898399818A81981743
:1006000068F20F900F90DF91CF911F910F91089595
:10061000CF93DF9300D000D0CDB7DEB79B838A8322
:100620006C8300008C81882F90E0019788569E4F44
:10063000FC0180818823B1F319822CC08981882F25
:1006400090E02A813B81820F931F2C81222F30E082
:1006500021503048220F331F20593E4FF90140816D
:1006600051812C81222F30E02150310922573E4FF9
:10067000F9012081622F70E02981222F30E0260FBE
:10068000371F240F351FF9012081FC012083898148
:100690008F5F89838981883088F28C81882F90E0F0
:1006A000019782579E4FFC0120812F5FFC01208320
:1006B000253041F48C81882F90E0019782579E4F1E
:1006C000FC0110828C81882F90E001979C012856B4
:1006D0003E4FF9012081215088569E4FFC01208316
:1006E00080E00F900F900F900F90DF91CF910895C1
:1006F000CF93DF9300D000D000D0CDB7DEB79D837D
:100700008C836E83000089ED90E0FC0180818295EE
:100710008F70882F90E081709927892BA1F789ED40
:1007200090E0FC018081869586958695882F90E0E3
:1007300081709927892B39F78DEE90E0FC0180813B
:100740008B831A8215C08DEE90E02A812295207F3E
:10075000FC0120838FEE90E0FC01808182958695DC
:1007600086958370882309F406C08A818F5F8A8307
:100770008A818F3040F38A818F3011F48FEF39C036
:1007800082EF90E02E812295220F207EFC012083B3
:1007900083EF90E02E81269526952695FC012083F7
:1007A0008FEE90E028E0FC012083198210C08AEFD0
:1007B00090E02981222F30E04C815D81240F351F8C
:1007C000F9012081FC01208389818F5F89838981E0
:1007D000883068F38FEE90E02FEE30E0F901208151
:1007E0002064FC0120838DEE90E02B81FC012083AE
:1007F00080E026960FB6F894DEBF0FBECDBFDF9126
:10080000CF910895CF93DF93CDB7DEB767970FB63B
:10081000F894DEBF0FBECDBF8F8B8091A2019F8960
:10082000981709F47BC086E58F878F89888B6CC009
:1008300080E090E0A8E4B2E489839A83AB83BC8330
:1008400020E030E44CE155E469817A818B819C8120
:10085000D3D7DC01CB018D839E83AF83B88720E0A3
:1008600030E040E85FE36D817E818F81988576D6A8
:1008700088232CF481E090E09A8789873BC020E0B0
:100880003FEF4FE757E46D817E818F819885B0D728
:1008900018163CF520E030E040E251E469817A81AD
:1008A0008B819C81A9D7DC01CB01BC01CD01C2D6D3
:1008B000DC01CB019A8789870FC08AEF90E09C8783
:1008C0008B878B859C850197F1F79C878B87898522
:1008D0009A8501979A87898789859A85892B69F7EF
:1008E00013C06D817E818F819885A4D6DC01CB01F8
:1008F0009A87898789859A859E878D878D859E852C
:100900000197F1F79E878D87CE010F9663ECF0DE9D
:10091000882309F08DCF8F898093A20167960FB647
:10092000F894DEBF0FBECDBFDF91CF910895CF9376
:10093000DF93CDB7DEB766970FB6F894DEBF0FBE74
:10094000CDBF80E58F876CC080E090E0A8E4B2E482
:1009500089839A83AB83BC8320E030E44CE155E487
:1009600069817A818B819C8147D7DC01CB018D83A2
:100970009E83AF83B88720E030E040E85FE36D817D
:100980007E818F819885EAD588232CF481E090E0E0
:100990009A8789873BC020E03FEF4FE757E46D819E
:1009A0007E818F81988524D718163CF520E030E0B1
:1009B00040E251E469817A818B819C811DD7DC0101
:1009C000CB01BC01CD0136D6DC01CB019A878987EA
:1009D0000FC08AEF90E09C878B878B859C85019761
:1009E000F1F79C878B8789859A8501979A878987F4
:1009F00089859A85892B69F713C06D817E818F81E6
:100A0000988518D6DC01CB019A87898789859A85D4
:100A10009E878D878D859E850197F1F79E878D87AF
:100A2000CE010F9663EC64DE882309F08DCFCE01F2
:100A30000F9661E0EDDD8F8580930C018889882F0A
:100A400090E0382F22278989882F90E0822B932BE2
:100A500090930701809306018A89882F90E0382FB0
:100A600022278B89882F90E0822B932B909309016A
:100A7000809308018C89882F90E0382F22278D8958
:100A8000882F90E0822B932B90930B0180930A0187
:100A900066960FB6F894DEBF0FBECDBFDF91CF9143
:100AA0000895CF93DF9300D000D000D0CDB7DEB74C
:100AB0009E838D83C1D3092E000CAA0BBB0B8983A7
:100AC0009A83AB83BC8333DF8D819E81892B71F048
:100AD00089819A81AB81BC812D813E81BC01CD0190
:100AE000F9010995813011F481E009C080910C0170
:100AF0008D3449F380910C01823529F380E02696EC
:100B00000FB6F894DEBF0FBECDBFDF91CF91089531
:100B1000CF93DF93CDB7DEB76C970FB6F894DEBFF7
:100B20000FBECDBF988F8F8B698F4A8F3C8F2B8FD5
:100B3000898D68DE87E48F878F89988DFC0180819D
:100B40009181892F990F990B888B8F89988DFC0142
:100B500080819181898B8F89988DFC01828193811D
:100B6000892F990F990B8A8B8F89988DFC0182812F
:100B700093818B8B1C8A8A8D8D8B6CC080E090E07A
:100B8000A8E4B2E489839A83AB83BC8320E030E499
:100B90004CE155E469817A818B819C812DD6DC0101
:100BA000CB018D839E83AF83B88720E030E040E89F
:100BB0005FE36D817E818F819885D0D488232CF46A
:100BC00081E090E09A8789873BC020E03FEF4FE7C4
:100BD00057E46D817E818F8198850AD618163CF581
:100BE00020E030E040E251E469817A818B819C8190
:100BF00003D6DC01CB01BC01CD011CD5DC01CB014E
:100C00009A8789870FC08AEF90E09C878B878B85B6
:100C10009C850197F1F79C878B8789859A85019739
:100C20009A87898789859A85892B69F713C06D8191
:100C30007E818F819885FED4DC01CB019A878987DC
:100C400089859A859E878D878D859E850197F1F789
:100C50009E878D87CE010F9663EC4ADD882309F0CD
:100C60008DCF8B8D9C8D1DDF6C960FB6F894DEBFFB
:100C70000FBECDBFDF91CF910895CF93DF93CDB756
:100C8000DEB768970FB6F894DEBF0FBECDBF988F62
:100C90008F8B89E48F878F89988DFC01808191816A
:100CA000892F990F990B888B8F89988DFC018081F2
:100CB0009181898B8F89988DFC0182819381892F05
:100CC000990F990B8A8B8F89988DFC018281938172
:100CD0008B8B8F89988DFC0184819581892F990F49
:100CE000990B8C8B8F89988DFC01848195818D8BDC
:100CF0008F89988DFC018081918190930701809369
:100D000006018F89988DFC0182819381909309015E
:100D1000809308018F89988DFC018481958190933F
:100D20000B0180930A016CC080E090E0A8E4B2E47B
:100D300089839A83AB83BC8320E030E44CE155E4A3
:100D400069817A818B819C8157D5DC01CB018D83B0
:100D50009E83AF83B88720E030E040E85FE36D8199
:100D60007E818F819885FAD388232CF481E090E0EE
:100D70009A8789873BC020E03FEF4FE757E46D81BA
:100D80007E818F81988534D518163CF520E030E0BF
:100D900040E251E469817A818B819C812DD5DC010F
:100DA000CB01BC01CD0146D4DC01CB019A878987F8
:100DB0000FC08AEF90E09C878B878B859C8501977D
:100DC000F1F79C878B8789859A8501979A87898710
:100DD00089859A85892B69F713C06D817E818F8102
:100DE000988528D4DC01CB019A87898789859A85E3
:100DF0009E878D878D859E850197F1F79E878D87CC
:100E0000CE010F9663EC74DC882309F08DCF6896D1
:100E10000FB6F894DEBF0FBECDBFDF91CF9108951E
:100E2000CF93DF93CDB7DEB72B970FB6F894DEBF25
:100E30000FBECDBF19821A8281E08B8385E590E0D9
:100E40009E838D838EE992E098878F8386EA9FEF59
:100E50009A878987CE01059610DF8B81882F90E0D5
:100E6000019709F04AC08A81898343C08981282F6C
:100E700030E04BE0429FC001439F900D11248A5EF9
:100E80009E4FDC014D915C918981282F30E06BE011
:100E9000629FC001639F900D11248B5E9E4FDC0109
:100EA000EC918981282F30E06BE0629FC001639F45
:100EB000900D11248C5E9E4FDC017C918981282F3E
:100EC00030E06BE0629FC001639F900D1124835F4F
:100ED0009E4F9A014E2F672F1BDE8C838C818130B1
:100EE00009F40BC08981883009F4FFCF89818F5FB5
:100EF00089838981893008F4B9CFAFCF0F931F93CD
:100F0000CF93DF9300D0CDB7DEB79A83898380E893
:100F100090E0FC01108281E890E029E0FC01208350
:100F200008E810E089819A81CC01A0E0B0E0BC0122
:100F3000CD01ACD3DC01CB019C01AD0160E876E9C9
:100F400088E19BE40FD3DC01CB0120E030E040E0FE
:100F50005FE3BC01CD019ED2DC01CB01BC01CD0120
:100F600069D3DC01CB01F801918380838FE690E0A7
:100F700022E0FC0120838FE590E02FE530E0F901CD
:100F800020812068FC0120830F900F90DF91CF918A
:100F90001F910F9108951F920F9200905F000F9282
:100FA000112400905B000F922F933F934F935F9318
:100FB0006F937F938F939F93AF93BF93EF93FF9321
:100FC000CF93DF93CDB7DEB78091A7019091A801B1
:100FD000892B31F08091A7019091A801FC0109951E
:100FE0008091A3019091A401A091A501B091A601C7
:100FF0000196A11DB11D8093A3019093A401A0931C
:10100000A501B093A601DF91CF91FF91EF91BF9120
:10101000AF919F918F917F916F915F914F913F9190
:101020002F910F9000925B000F9000925F000F9045
:101030001F901895CF93DF93CDB7DEB76C970FB69F
:10104000F894DEBF0FBECDBF80E090E0AAE7B4E425
:1010500089839A83AB83BC8320E030E44CE155E480
:1010600069817A818B819C81C7D3DC01CB018D831F
:101070009E83AF83B88720E030E040E85FE36D8176
:101080007E818F8198856AD288232CF481E090E05C
:101090009A8789873BC020E03FEF4FE757E46D8197
:1010A0007E818F819885A4D318163CF520E030E02E
:1010B00040E251E469817A818B819C819DD3DC017E
:1010C000CB01BC01CD01B6D2DC01CB019A87898767
:1010D0000FC08AEF90E09C878B878B859C8501975A
:1010E000F1F79C878B8789859A8501979A878987ED
:1010F00089859A85892B69F713C06D817E818F81DF
:10110000988598D2DC01CB019A87898789859A8551
:101110009E878D878D859E850197F1F79E878D87A8
:1011200083E390E02FEFFC01208384E390E02FEF36
:10113000FC01208380E090E0AAE7B4E48F87988BDD
:10114000A98BBA8B20E030E44CE155E46F857889B7
:1011500089899A8951D3DC01CB018B8B9C8BAD8B18
:10116000BE8B20E030E040E85FE36B897C898D89AD
:101170009E89F4D188232CF481E090E0988F8F8BA6
:101180003BC020E03FEF4FE757E46B897C898D89B6
:101190009E892ED318163CF520E030E040E251E461
:1011A0006F85788989899A8927D3DC01CB01BC01B5
:1011B000CD0140D2DC01CB01988F8F8B0FC08AEF1D
:1011C00090E09A8F898F898D9A8D0197F1F79A8F88
:1011D000898F8F89988D0197988F8F8B8F89988DA4
:1011E000892B69F713C06B897C898D899E8922D2EE
:1011F000DC01CB01988F8F8B8F89988D9C8F8B8F83
:101200008B8D9C8D0197F1F79C8F8B8F84E390E001
:10121000FC01108282E390E00E94700088EE93E06F
:101220006DDE81E0B0D96C960FB6F894DEBF0FBECC
:10123000CDBFDF91CF910895CF93DF93CDB7DEB7C8
:101240008091A3019091A401A091A501B091A60164
:10125000BC01CD01DF91CF9108951F920F920090B4
:101260005F000F92112400905B000F922F933F9329
:101270008F939F93EF93FF93CF93DF93CDB7DEB719
:101280008091E9018823D1F08091E9018150809318
:10129000E90186EC90E02091EA01222F30E0275509
:1012A0003E4FF9012081FC0120838091EA018F5F8C
:1012B0008093EA01803411F41092EA01DF91CF911A
:1012C000FF91EF919F918F913F912F910F900092FD
:1012D0005B000F9000925F000F901F9018951F9277
:1012E0000F9200905F000F92112400905B000F920C
:1012F0002F933F938F939F93EF93FF93CF93DF931E
:101300001F92CDB7DEB780EC90E0FC01808189832D
:101310008981882F90E08C719927892BD1F4809155
:101320002B02882F90E026EC30E0F90120818551D6
:101330009E4FFC01208380912B028F5F80932B02B4
:10134000803411F410922B0280912C028F5F8093D5
:101350002C020F90DF91CF91FF91EF919F918F9190
:101360003F912F910F9000925B000F9000925F00D1
:101370000F901F9018951F920F9200905F000F9290
:10138000112400905B000F922F933F938F939F93B4
:10139000EF93FF93CF93DF93CDB7DEB780916D02CC
:1013A0008823D1F080916D02815080936D028EEC84
:1013B00090E020916E02222F30E0235D3D4FF90135
:1013C0002081FC01208380916E028F5F80936E02EA
:1013D000803411F410926E02DF91CF91FF91EF9162
:1013E0009F918F913F912F910F9000925B000F90F2
:1013F00000925F000F901F9018951F920F9200901F
:101400005F000F92112400905B000F922F933F9387
:101410008F939F93EF93FF93CF93DF931F92CDB75B
:10142000DEB788EC90E0FC01808189838981882F78
:1014300090E08C719927892BD1F48091AF02882F8D
:1014400090E02EEC30E0F901208181599D4FFC01A4
:1014500020838091AF028F5F8093AF02803411F4BC
:101460001092AF028091B0028F5F8093B0020F9014
:10147000DF91CF91FF91EF919F918F913F912F91AC
:101480000F9000925B000F9000925F000F901F90F2
:1014900018955058BB27AA270ED070C161D130F0E3
:1014A00066D120F031F49F3F11F41EF456C10EF4C2
:1014B000E095E7FB4CC1E92F72D180F3BA176207C0
:1014C00073078407950718F071F49EF58AC10EF42E
:1014D000E0950B2EBA2FA02D0B01B90190010C0144
:1014E000CA01A0011124FF27591B99F0593F50F45C
:1014F000503E68F11A16F040A22F232F342F4427B4
:10150000585FF3CF469537952795A795F0405395AB
:10151000C9F77EF41F16BA0B620B730B840BBAF07B
:101520009150A1F0FF0FBB1F661F771F881FC2F7E6
:101530000EC0BA0F621F731F841F48F487957795FA
:101540006795B795F7959E3F08F0B3CF9395880FB1
:1015500008F09927EE0F979587950895D4D008F451
:1015600081E008950CD00AC102D140F0F9D030F0EA
:1015700021F45F3F19F0EBC0511134C1EEC00FD11F
:1015800098F39923C9F35523B1F3951B550BBB274A
:10159000AA2762177307840738F09F5F5F4F220FF7
:1015A000331F441FAA1FA9F333D00E2E3AF0E0E8F0
:1015B00030D091505040E695001CCAF729D0FE2F3C
:1015C00027D0660F771F881FBB1F261737074807CE
:1015D000AB07B0E809F0BB0B802DBF01FF27935884
:1015E0005F4F2AF09E3F510568F0B1C0FBC05F3FDE
:1015F000ECF3983EDCF3869577956795B795F7956C
:101600009F5FC9F7880F911D9695879597F9089563
:10161000E1E0660F771F881FBB1F621773078407FF
:10162000BA0720F0621B730B840BBA0BEE1F88F70E
:10163000E0950895BCD088F09F5790F0B92F992776
:10164000B751A0F0D1F0660F771F881F991F1AF0CD
:10165000BA95C9F712C0B13081F0C3D0B1E0089596
:10166000C0C0672F782F8827B85F39F0B93FCCF317
:10167000869577956795B395D9F73EF490958095C3
:10168000709561957F4F8F4F9F4F0895E89409C0E3
:1016900097FB3EF490958095709561957F4F8F4FA5
:1016A0009F4F9923A9F0F92F96E9BB279395F695BB
:1016B000879577956795B795F111F8CFFAF4BB0F39
:1016C00011F460FF1BC06F5F7F4F8F4F9F4F16C09D
:1016D000882311F096E911C0772321F09EE8872F27
:1016E000762F05C0662371F096E8862F70E060E0E3
:1016F0002AF09A95660F771F881FDAF7880F96955C
:10170000879597F90895990F0008550FAA0BE0E8FF
:10171000FEEF16161706E807F907C0F012161306B3
:10172000E407F50798F0621B730B840B950B39F4F3
:101730000A2661F0232B242B252B21F408950A2659
:1017400009F4A140A6958FEF811D811D089597F999
:101750009F6780E870E060E008959FEF80EC089557
:1017600000240A9416161706180609060895002480
:101770000A9412161306140605060895092E0394FA
:10178000000C11F4882352F0BB0F40F4BF2B11F46E
:1017900060FF04C06F5F7F4F8F4F9F4F089557FDCD
:1017A0009058440F551F59F05F3F71F04795880FCF
:1017B00097FB991F61F09F3F79F087950895121666
:1017C00013061406551FF2CF4695F1DF08C0161612
:1017D00017061806991FF1CF8695710561050894C3
:1017E0000895E894BB2766277727CB0197F90895DA
:1017F0008ADF08F48FEF08950BD0C0CFB1DF28F057
:10180000B6DF18F0952309F0A2CFA7CF1124EACFB5
:10181000C6DFA0F3959FD1F3950F50E0551F629F4F
:10182000F001729FBB27F00DB11D639FAA27F00D39
:10183000B11DAA1F649F6627B00DA11D661F829F60
:101840002227B00DA11D621F739FB00DA11D621F45
:10185000839FA00D611D221F749F3327A00D611D62
:10186000231F849F600D211D822F762F6A2F112444
:101870009F5750408AF0E1F088234AF0EE0FFF1F97
:10188000BB1F661F771F881F91505040A9F79E3FCE
:10189000510570F05CCFA6CF5F3FECF3983EDCF3D0
:1018A000869577956795B795F795E7959F5FC1F70B
:1018B000FE2B880F911D9695879597F908950F93A4
:1018C0001F93CF93DF93869F8001879F100D969F74
:1018D000100D1124C8010DD0EC01009721F0A801D2
:1018E00060E070E033D1CE01DF91CF911F910F9175
:1018F0000895CF93DF938230910510F482E090E059
:10190000E091B302F091B40220E030E0C0E0D0E01A
:10191000309711F14081518148175907C0F048179D
:10192000590761F482819381209719F09B838A8300
:101930002BC09093B4028093B30226C021153105C9
:1019400019F04217530718F49A01BE01DF01EF01A5
:101950000280F381E02DDCCF2115310509F1281B30
:10196000390B2430310590F412968D919C91139788
:101970006115710521F0FB019383828304C090936C
:10198000B4028093B302FD01329644C0FD01E20F20
:10199000F31F81939193225031092D933C933AC0C8
:1019A0002091B1023091B202232B41F42091020127
:1019B000309103013093B2022093B10220910001D3
:1019C000309101012115310541F42DB73EB7409109
:1019D000040150910501241B350BE091B102F091F7
:1019E000B202E217F307A0F42E1B3F0B28173907AA
:1019F00078F0AC014E5F5F4F2417350748F04E0F6B
:101A00005F1F5093B2024093B1028193919302C041
:101A1000E0E0F0E0CF01DF91CF9108950F931F93A5
:101A2000CF93DF93009709F48CC0FC0132971382A7
:101A300012820091B3021091B4020115110581F4D4
:101A400020813181820F931F2091B1023091B20227
:101A50002817390779F5F093B202E093B10271C00B
:101A6000D80140E050E0AE17BF0750F412962D9118
:101A70003C911397AD012115310509F1D901F3CF3F
:101A80009D01DA013383228360817181860F971F64
:101A90008217930769F4EC0128813981260F371FDB
:101AA0002E5F3F4F318320838A819B819383828382
:101AB000452B29F4F093B402E093B30242C013968D
:101AC000FC93EE931297ED01499159919E01240FD9
:101AD000351FE217F30771F480819181840F951F00
:101AE000029611969C938E938281938113969C9378
:101AF0008E931297E0E0F0E0D80112968D919C91C0
:101B00001397009719F0F8018C01F6CF8D919C91F5
:101B100098012E5F3F4F820F931F2091B1023091A9
:101B2000B2022817390769F4309729F41092B402E9
:101B30001092B30202C0138212821093B202009379
:101B4000B102DF91CF911F910F910895DC0101C087
:0E1B50006D9341505040E0F70895F894FFCF98
:101B5E000000B502200000000000000049E60090E1
:101B6E000100000041010000E600500000000041AD
:101B7E00010000E600900100000041FF0000260277
:101B8E002C01000000410100002602500000000060
:101B9E004101000026022C0100000041FF0000FA66
:101BAE00005203000000410100004C04CA03000073
:101BBE0000410100006400CA030000004101000062
:00000001FF
